{
  "contractName": "Coinflip",
  "abi": [
    {
      "anonymous": false,
      "inputs": [
        {
          "indexed": false,
          "internalType": "address",
          "name": "player",
          "type": "address"
        },
        {
          "indexed": false,
          "internalType": "bool",
          "name": "result",
          "type": "bool"
        }
      ],
      "name": "flipResult",
      "type": "event"
    },
    {
      "constant": true,
      "inputs": [],
      "name": "contractBalance",
      "outputs": [
        {
          "internalType": "uint256",
          "name": "",
          "type": "uint256"
        }
      ],
      "payable": false,
      "stateMutability": "view",
      "type": "function"
    },
    {
      "constant": true,
      "inputs": [
        {
          "internalType": "address",
          "name": "",
          "type": "address"
        }
      ],
      "name": "players",
      "outputs": [
        {
          "internalType": "uint256",
          "name": "",
          "type": "uint256"
        }
      ],
      "payable": false,
      "stateMutability": "view",
      "type": "function"
    },
    {
      "constant": false,
      "inputs": [],
      "name": "getPrize",
      "outputs": [
        {
          "internalType": "uint256",
          "name": "",
          "type": "uint256"
        }
      ],
      "payable": false,
      "stateMutability": "nonpayable",
      "type": "function"
    },
    {
      "constant": false,
      "inputs": [
        {
          "internalType": "uint256",
          "name": "betType",
          "type": "uint256"
        }
      ],
      "name": "tossCoin",
      "outputs": [
        {
          "internalType": "bool",
          "name": "result",
          "type": "bool"
        }
      ],
      "payable": true,
      "stateMutability": "payable",
      "type": "function"
    },
    {
      "constant": false,
      "inputs": [],
      "name": "addContractBalance",
      "outputs": [],
      "payable": true,
      "stateMutability": "payable",
      "type": "function"
    },
    {
      "constant": false,
      "inputs": [],
      "name": "addUserBalance",
      "outputs": [],
      "payable": true,
      "stateMutability": "payable",
      "type": "function"
    },
    {
      "constant": true,
      "inputs": [
        {
          "internalType": "address",
          "name": "user1",
          "type": "address"
        }
      ],
      "name": "getUserBalance",
      "outputs": [
        {
          "internalType": "uint256",
          "name": "",
          "type": "uint256"
        }
      ],
      "payable": false,
      "stateMutability": "view",
      "type": "function"
    }
  ],
  "bytecode": "0x608060405234801561001057600080fd5b50610606806100206000396000f3fe6080604052600436106100705760003560e01c80636640e2ec1161004e5780636640e2ec1461012a5780638b7afe2e14610134578063c34f6b0d1461015f578063e2eb41ff1461018a57610070565b80632bcc902714610075578063326d10dd1461007f57806347734892146100c5575b600080fd5b61007d6101ef565b005b6100ab6004803603602081101561009557600080fd5b810190808035906020019092919050505061023e565b604051808215151515815260200191505060405180910390f35b3480156100d157600080fd5b50610114600480360360208110156100e857600080fd5b81019080803573ffffffffffffffffffffffffffffffffffffffff16906020019092919050505061046f565b6040518082815260200191505060405180910390f35b6101326104b8565b005b34801561014057600080fd5b506101496104c9565b6040518082815260200191505060405180910390f35b34801561016b57600080fd5b506101746104cf565b6040518082815260200191505060405180910390f35b34801561019657600080fd5b506101d9600480360360208110156101ad57600080fd5b81019080803573ffffffffffffffffffffffffffffffffffffffff1690602001909291905050506105a7565b6040518082815260200191505060405180910390f35b34600160003373ffffffffffffffffffffffffffffffffffffffff1673ffffffffffffffffffffffffffffffffffffffff16815260200190815260200160002060008282540192505081905550565b60003466038d7ea4c680008110156102be576040517f08c379a000000000000000000000000000000000000000000000000000000000815260040180806020018281038252601a8152602001807f4d696e696d756d20746f20706c6179206973203030312065746800000000000081525060200191505060405180910390fd5b60008090506000809050600080541415610340576040517f08c379a00000000000000000000000000000000000000000000000000000000081526004018080602001828103825260168152602001807f42616c616e636520436f6e747261637420456d7074790000000000000000000081525060200191505060405180910390fd5b600061034a6105bf565b1480156103575750600085145b80610375575060016103676105bf565b1480156103745750600185145b5b156103e55760023402905080600160003373ffffffffffffffffffffffffffffffffffffffff1673ffffffffffffffffffffffffffffffffffffffff16815260200190815260200160002060008282540192505081905550806000808282540392505081905550600191506103f5565b3460008082825401925050819055505b7fc212ccd4f44e3c5bfbcc44b7b2f61ff2089badd041c6c98b2acdecfeff1b116b3383604051808373ffffffffffffffffffffffffffffffffffffffff1673ffffffffffffffffffffffffffffffffffffffff168152602001821515151581526020019250505060405180910390a1819350505050919050565b6000600160008373ffffffffffffffffffffffffffffffffffffffff1673ffffffffffffffffffffffffffffffffffffffff168152602001908152602001600020549050919050565b346000808282540192505081905550565b60005481565b600080600160003373ffffffffffffffffffffffffffffffffffffffff1673ffffffffffffffffffffffffffffffffffffffff1681526020019081526020016000205490506000600160003373ffffffffffffffffffffffffffffffffffffffff1673ffffffffffffffffffffffffffffffffffffffff168152602001908152602001600020819055503373ffffffffffffffffffffffffffffffffffffffff166108fc829081150290604051600060405180830381858888f1935050505015801561059f573d6000803e3d6000fd5b508091505090565b60016020528060005260406000206000915090505481565b6000600242816105cb57fe5b0690509056fea265627a7a72315820292ca0ec26c3fbbeb062b4071f0f9d2754ab55764c8f4a3b786b1f9ebcda46bb64736f6c634300050c0032",
  "source": "pragma solidity 0.5.12;\r\n\r\n\r\ncontract Coinflip {\r\n    uint public contractBalance;\r\n\r\n    // The keyword \"public\" makes those variables\r\n    // easily readable from outside.\r\n    //address public owner;\r\n\r\n\r\n    mapping (address => uint) public players;\r\n\r\n\r\n    event flipResult(address player, bool result);\r\n\r\n    modifier minimumBet(uint256 betValue) {\r\n        require(betValue >= 0.001 ether, \"Minimum to play is 001 eth\");\r\n        _;\r\n    }\r\n\r\n    function getPrize() public returns(uint){\r\n      uint toTransfer = players[msg.sender];\r\n      players[msg.sender] = 0;\r\n      msg.sender.transfer(toTransfer);\r\n      return toTransfer;\r\n    }\r\n\r\n    function tossCoin(uint betType) public payable minimumBet(msg.value) returns (bool result){\r\n      bool winner = false;\r\n      uint256 betwon = 0;\r\n      //uint currentContractBalance = getContractBalance();\r\n      require(contractBalance != 0 ,\"Balance Contract Empty\");\r\n        //uint bet = msg.value;\r\n        //balances[player] += bet;\r\n        //require(betType == 1 || betType == 0, \"Bet must be heads or tails!\"); //Heads will be 0 and Tails will be 1\r\n      //require(msg.value <= balances[player], \"You can only bet as much as your balance, deposit more please!\");\r\n      if((random() == 0 && betType == 0) ||  (random() == 1 && betType == 1)){\r\n        //wins\r\n        betwon = msg.value * 2;\r\n        players[msg.sender] += betwon;\r\n        contractBalance -= betwon;\r\n        winner = true;\r\n      }else{\r\n        //players[msg.sender] -= msg.value;\r\n        contractBalance += msg.value;\r\n        \r\n      }\r\n      emit flipResult(msg.sender, winner);\r\n      return winner;\r\n    }\r\n\r\n    function addContractBalance()public payable {\r\n      contractBalance += msg.value;\r\n    }\r\n\r\n    function addUserBalance()public payable{\r\n        players[msg.sender] += msg.value;\r\n    }\r\n\r\n    function getUserBalance(address user1)public view returns(uint){\r\n       return players[user1];\r\n    }\r\n\r\n    function random() private view returns(uint){\r\n        return now % 2;\r\n    }\r\n}\r\n",
  "sourcePath": "C:/Users/fabio.lucena/Documents/etherum-course-advanced/DappCoin/smartcontract/contracts/Coinflip.sol",
  "compiler": {
    "name": "solc",
    "version": "0.5.12+commit.7709ece9.Emscripten.clang"
  },
  "schemaVersion": "3.0.16",
  "updatedAt": "2020-09-10T17:10:08.342Z",
  "devdoc": {
    "methods": {}
  },
  "userdoc": {
    "methods": {}
  }
}